S01800004763634170706C69636174696F6E31312E7372656329
S11300000C9446000C94DD000C9424010C946B01B8
S11300100C94B2010C9466000C9466000C94660077
S11300200C9466000C9466000C9466000C946600B4
S11300300C9466000C9466000C9466000C946600A4
S11300400C9466000C9466000C9466000C94660094
S11300500C9466000C9466000C9466000C94660084
S11300600C9466000C9466000C9466000C94660074
S11300700C9466000C9466000C9466000C94660064
S11300800C9466000C9466000C94660011241FBE48
S1130090CFEFD0E1DEBFCDBF11E0A0E0B1E0E6E3F9
S11300A0F4E000E00BBF02C007900D92A630B10748
S11300B0D9F71BBE11E0A6E0B1E001C01D92A73044
S11300C0B107E1F70E94A5000C9419020C940000FA
S11300D011BA12BAEAE6F0E010828FEF808319BEFB
S11300E08FE089BF089580E487BB18BA1092040199
S11300F081E090E0909305018093040108955F9B53
S1130100FECF8CB108951092900083E389B988E101
S11301108AB986E08093950008955D9BFECF8CB9E3
S11301200895CF93DF93EC018881882331F02196E1
S11301300E948D0089918823D9F7DF91CF9108958A
S1130140579A8CB180930601089578948EB5846093
S11301508EBD0F2EF3E7AF2EF0E0BF2EF02DF5018C
S113016009950E9468000E94830000E010E00F2EB1
S1130170F0E0EF2EF1E0FF2EF02D0F2EFAE0CF2E5F
S1130180DD24F02D98018CB59DB54AE783319407A1
S113019020F02F5F3F4F1DBC1CBC2530310599F763
S11301A02196C7010E949100CE01B6010E94F2017E
S11301B0009741F7F5010995E5CF1F920F920FB60D
S11301C00F9211245F936F937F938F939F93AF93B9
S11301D0BF9380910001803359F58091040190917F
S11301E00501805D809300018091040190910501D7
S11301F001969093050180930401809104019091EC
S1130200050183709070009769F0809104019091CA
S1130210050164E070E00E94F2019093050180936F
S1130220040106C084E090E09093050180930401EA
S1130230BF91AF919F918F917F916F915F910F903B
S11302400FBE0F901F9018951F920F920FB60F922A
S113025011245F936F937F938F939F93AF93BF9377
S113026080910101803359F5809104019091050139
S1130270805D8093010180910401909105010196B4
S113028090930501809304018091040190910501EC
S113029083709070009769F080910401909105013A
S11302A064E070E00E94F2019093050180930401E0
S11302B006C084E090E09093050180930401BF910F
S11302C0AF919F918F917F916F915F910F900FBE2E
S11302D00F901F9018951F920F920FB60F92112432
S11302E05F936F937F938F939F93AF93BF9380910B
S11302F00201803359F58091040190910501805DDC
S113030080930201809104019091050101969093DC
S1130310050180930401809104019091050183708B
S11303209070009769F0809104019091050164E058
S113033070E00E94F201909305018093040106C0CD
S113034084E090E09093050180930401BF91AF9104
S11303509F918F917F916F915F910F900FBE0F903E
S11303601F9018951F920F920FB60F9211245F934E
S11303706F937F938F939F93AF93BF938091030168
S1130380803321F5809104019091050101969093A9
S1130390050180930401809104019091050183700B
S11303A09070009769F0809104019091050164E0D8
S11303B070E00E94F201909305018093040106C04D
S11303C084E090E09093050180930401BF91AF9184
S11303D09F918F917F916F915F910F900FBE0F90BE
S11303E01F90189597FB092E07260AD077FD04D095
S11303F00CD006D000201AF4709561957F4F0895B3
S1130400F6F7909581959F4F0895AA1BBB1B51E168
S113041007C0AA1FBB1FA617B70710F0A61BB70B70
S1130420881F991F5A95A9F780959095BC01CD0115
S10904300895F894FFCFCB
S1090436303030300100FB
S9030000FC
